{
  "contractName": "nexus",
  "abi": [
    {
      "constant": true,
      "inputs": [
        {
          "name": "",
          "type": "address"
        }
      ],
      "name": "drivers",
      "outputs": [
        {
          "name": "addr",
          "type": "address"
        },
        {
          "name": "lat",
          "type": "string"
        },
        {
          "name": "lon",
          "type": "string"
        },
        {
          "name": "updated",
          "type": "uint256"
        },
        {
          "name": "rider",
          "type": "address"
        },
        {
          "name": "deposit",
          "type": "uint256"
        },
        {
          "name": "rating",
          "type": "uint8"
        },
        {
          "name": "ratingCount",
          "type": "uint256"
        },
        {
          "name": "riderRating",
          "type": "uint8"
        },
        {
          "name": "pubKey",
          "type": "string"
        }
      ],
      "payable": false,
      "stateMutability": "view",
      "type": "function"
    },
    {
      "constant": true,
      "inputs": [],
      "name": "riderDeposit",
      "outputs": [
        {
          "name": "",
          "type": "uint256"
        }
      ],
      "payable": false,
      "stateMutability": "view",
      "type": "function"
    },
    {
      "constant": true,
      "inputs": [
        {
          "name": "",
          "type": "address"
        }
      ],
      "name": "riders",
      "outputs": [
        {
          "name": "addr",
          "type": "address"
        },
        {
          "name": "driver",
          "type": "address"
        },
        {
          "name": "fare",
          "type": "uint256"
        },
        {
          "name": "deposit",
          "type": "uint256"
        },
        {
          "name": "rating",
          "type": "uint8"
        },
        {
          "name": "ratingCount",
          "type": "uint256"
        }
      ],
      "payable": false,
      "stateMutability": "view",
      "type": "function"
    },
    {
      "constant": true,
      "inputs": [],
      "name": "driverDeposit",
      "outputs": [
        {
          "name": "",
          "type": "uint256"
        }
      ],
      "payable": false,
      "stateMutability": "view",
      "type": "function"
    },
    {
      "constant": true,
      "inputs": [
        {
          "name": "",
          "type": "address"
        },
        {
          "name": "",
          "type": "bool"
        }
      ],
      "name": "dllDriverIndex",
      "outputs": [
        {
          "name": "",
          "type": "address"
        }
      ],
      "payable": false,
      "stateMutability": "view",
      "type": "function"
    },
    {
      "inputs": [],
      "payable": false,
      "stateMutability": "nonpayable",
      "type": "constructor"
    },
    {
      "constant": false,
      "inputs": [
        {
          "name": "lat",
          "type": "string"
        },
        {
          "name": "lon",
          "type": "string"
        },
        {
          "name": "pubKey",
          "type": "string"
        }
      ],
      "name": "driverAdvertise",
      "outputs": [],
      "payable": true,
      "stateMutability": "payable",
      "type": "function"
    },
    {
      "constant": false,
      "inputs": [],
      "name": "driverRevokeAdvert",
      "outputs": [],
      "payable": false,
      "stateMutability": "nonpayable",
      "type": "function"
    },
    {
      "constant": false,
      "inputs": [
        {
          "name": "driver",
          "type": "address"
        }
      ],
      "name": "riderCreateJourney",
      "outputs": [],
      "payable": true,
      "stateMutability": "payable",
      "type": "function"
    },
    {
      "constant": false,
      "inputs": [
        {
          "name": "rider",
          "type": "address"
        }
      ],
      "name": "driverAcceptJourney",
      "outputs": [],
      "payable": false,
      "stateMutability": "nonpayable",
      "type": "function"
    },
    {
      "constant": false,
      "inputs": [
        {
          "name": "rating",
          "type": "uint8"
        }
      ],
      "name": "driverCompleteJourney",
      "outputs": [],
      "payable": false,
      "stateMutability": "nonpayable",
      "type": "function"
    },
    {
      "constant": false,
      "inputs": [
        {
          "name": "rating",
          "type": "uint8"
        }
      ],
      "name": "riderCompleteJourney",
      "outputs": [],
      "payable": false,
      "stateMutability": "nonpayable",
      "type": "function"
    }
  ],
  "bytecode": "0x6060604052341561000f57600080fd5b6064600281905550606460038190555061246e8061002e6000396000f3006060604052600436106100af576000357c0100000000000000000000000000000000000000000000000000000000900463ffffffff1680630edb48a1146100b4578063439d0f85146100e25780634aa601861461011b57806352e1ff521461039157806369612acf146104695780638973568d1461048f57806399738184146104a4578063aa580671146104cd578063ad4c9558146104f3578063c0059ce6146105c1578063ee7bde7d146105ea575b600080fd5b6100e0600480803573ffffffffffffffffffffffffffffffffffffffff1690602001909190505061066e565b005b34156100ed57600080fd5b610119600480803573ffffffffffffffffffffffffffffffffffffffff16906020019091905050610950565b005b341561012657600080fd5b610152600480803573ffffffffffffffffffffffffffffffffffffffff16906020019091905050610b0a565b604051808b73ffffffffffffffffffffffffffffffffffffffff1673ffffffffffffffffffffffffffffffffffffffff16815260200180602001806020018a81526020018973ffffffffffffffffffffffffffffffffffffffff1673ffffffffffffffffffffffffffffffffffffffff1681526020018881526020018760ff1660ff1681526020018681526020018560ff1660ff1681526020018060200184810384528d8181546001816001161561010002031660029004815260200191508054600181600116156101000203166002900480156102715780601f1061024657610100808354040283529160200191610271565b820191906000526020600020905b81548152906001019060200180831161025457829003601f168201915b505084810383528c8181546001816001161561010002031660029004815260200191508054600181600116156101000203166002900480156102f45780601f106102c9576101008083540402835291602001916102f4565b820191906000526020600020905b8154815290600101906020018083116102d757829003601f168201915b50508481038252858181546001816001161561010002031660029004815260200191508054600181600116156101000203166002900480156103775780601f1061034c57610100808354040283529160200191610377565b820191906000526020600020905b81548152906001019060200180831161035a57829003601f168201915b50509d505050505050505050505050505060405180910390f35b610467600480803590602001908201803590602001908080601f0160208091040260200160405190810160405280939291908181526020018383808284378201915050505050509190803590602001908201803590602001908080601f0160208091040260200160405190810160405280939291908181526020018383808284378201915050505050509190803590602001908201803590602001908080601f01602080910402602001604051908101604052809392919081815260200183838082843782019150505050505091905050610bb5565b005b341561047457600080fd5b61048d600480803560ff16906020019091905050610f0a565b005b341561049a57600080fd5b6104a2611004565b005b34156104af57600080fd5b6104b761112b565b6040518082815260200191505060405180910390f35b34156104d857600080fd5b6104f1600480803560ff16906020019091905050611131565b005b34156104fe57600080fd5b61052a600480803573ffffffffffffffffffffffffffffffffffffffff16906020019091905050611aa0565b604051808773ffffffffffffffffffffffffffffffffffffffff1673ffffffffffffffffffffffffffffffffffffffff1681526020018673ffffffffffffffffffffffffffffffffffffffff1673ffffffffffffffffffffffffffffffffffffffff1681526020018581526020018481526020018360ff1660ff168152602001828152602001965050505050505060405180910390f35b34156105cc57600080fd5b6105d4611b29565b6040518082815260200191505060405180910390f35b34156105f557600080fd5b61062c600480803573ffffffffffffffffffffffffffffffffffffffff169060200190919080351515906020019091905050611b2f565b604051808273ffffffffffffffffffffffffffffffffffffffff1673ffffffffffffffffffffffffffffffffffffffff16815260200191505060405180910390f35b600354341015151561067f57600080fd5b600073ffffffffffffffffffffffffffffffffffffffff16600160003373ffffffffffffffffffffffffffffffffffffffff1673ffffffffffffffffffffffffffffffffffffffff16815260200190815260200160002060010160009054906101000a900473ffffffffffffffffffffffffffffffffffffffff1673ffffffffffffffffffffffffffffffffffffffff1614151561071c57600080fd5b8073ffffffffffffffffffffffffffffffffffffffff166000808373ffffffffffffffffffffffffffffffffffffffff1673ffffffffffffffffffffffffffffffffffffffff16815260200190815260200160002060000160009054906101000a900473ffffffffffffffffffffffffffffffffffffffff1673ffffffffffffffffffffffffffffffffffffffff161415156107b757600080fd5b600354600160003373ffffffffffffffffffffffffffffffffffffffff1673ffffffffffffffffffffffffffffffffffffffff168152602001908152602001600020600301819055506003543403600160003373ffffffffffffffffffffffffffffffffffffffff1673ffffffffffffffffffffffffffffffffffffffff1681526020019081526020016000206002018190555080600160003373ffffffffffffffffffffffffffffffffffffffff1673ffffffffffffffffffffffffffffffffffffffff16815260200190815260200160002060010160006101000a81548173ffffffffffffffffffffffffffffffffffffffff021916908373ffffffffffffffffffffffffffffffffffffffff16021790555033600160003373ffffffffffffffffffffffffffffffffffffffff1673ffffffffffffffffffffffffffffffffffffffff16815260200190815260200160002060000160006101000a81548173ffffffffffffffffffffffffffffffffffffffff021916908373ffffffffffffffffffffffffffffffffffffffff16021790555050565b3373ffffffffffffffffffffffffffffffffffffffff166000803373ffffffffffffffffffffffffffffffffffffffff1673ffffffffffffffffffffffffffffffffffffffff16815260200190815260200160002060000160009054906101000a900473ffffffffffffffffffffffffffffffffffffffff1673ffffffffffffffffffffffffffffffffffffffff161415156109eb57600080fd5b3373ffffffffffffffffffffffffffffffffffffffff16600160008373ffffffffffffffffffffffffffffffffffffffff1673ffffffffffffffffffffffffffffffffffffffff16815260200190815260200160002060010160009054906101000a900473ffffffffffffffffffffffffffffffffffffffff1673ffffffffffffffffffffffffffffffffffffffff16141515610a8757600080fd5b806000803373ffffffffffffffffffffffffffffffffffffffff1673ffffffffffffffffffffffffffffffffffffffff16815260200190815260200160002060040160006101000a81548173ffffffffffffffffffffffffffffffffffffffff021916908373ffffffffffffffffffffffffffffffffffffffff16021790555050565b60006020528060005260406000206000915090508060000160009054906101000a900473ffffffffffffffffffffffffffffffffffffffff1690806001019080600201908060030154908060040160009054906101000a900473ffffffffffffffffffffffffffffffffffffffff16908060050154908060060160009054906101000a900460ff16908060070154908060080160009054906101000a900460ff16908060090190508a565b6002546000803373ffffffffffffffffffffffffffffffffffffffff1673ffffffffffffffffffffffffffffffffffffffff16815260200190815260200160002060050154101580610c0957506002543410155b1515610c1457600080fd5b3373ffffffffffffffffffffffffffffffffffffffff166000803373ffffffffffffffffffffffffffffffffffffffff1673ffffffffffffffffffffffffffffffffffffffff16815260200190815260200160002060000160009054906101000a900473ffffffffffffffffffffffffffffffffffffffff1673ffffffffffffffffffffffffffffffffffffffff16141515610cb457610cb333611b71565b5b336000803373ffffffffffffffffffffffffffffffffffffffff1673ffffffffffffffffffffffffffffffffffffffff16815260200190815260200160002060000160006101000a81548173ffffffffffffffffffffffffffffffffffffffff021916908373ffffffffffffffffffffffffffffffffffffffff160217905550826000803373ffffffffffffffffffffffffffffffffffffffff1673ffffffffffffffffffffffffffffffffffffffff1681526020019081526020016000206001019080519060200190610d89929190612355565b50816000803373ffffffffffffffffffffffffffffffffffffffff1673ffffffffffffffffffffffffffffffffffffffff1681526020019081526020016000206002019080519060200190610ddf929190612355565b50426000803373ffffffffffffffffffffffffffffffffffffffff1673ffffffffffffffffffffffffffffffffffffffff16815260200190815260200160002060030181905550346000803373ffffffffffffffffffffffffffffffffffffffff1673ffffffffffffffffffffffffffffffffffffffff16815260200190815260200160002060050154016000803373ffffffffffffffffffffffffffffffffffffffff1673ffffffffffffffffffffffffffffffffffffffff16815260200190815260200160002060050181905550806000803373ffffffffffffffffffffffffffffffffffffffff1673ffffffffffffffffffffffffffffffffffffffff1681526020019081526020016000206009019080519060200190610f04929190612355565b50505050565b600073ffffffffffffffffffffffffffffffffffffffff166000803373ffffffffffffffffffffffffffffffffffffffff1673ffffffffffffffffffffffffffffffffffffffff16815260200190815260200160002060040160009054906101000a900473ffffffffffffffffffffffffffffffffffffffff1673ffffffffffffffffffffffffffffffffffffffff1614151515610fa757600080fd5b806000803373ffffffffffffffffffffffffffffffffffffffff1673ffffffffffffffffffffffffffffffffffffffff16815260200190815260200160002060080160006101000a81548160ff021916908360ff16021790555050565b3373ffffffffffffffffffffffffffffffffffffffff166000803373ffffffffffffffffffffffffffffffffffffffff1673ffffffffffffffffffffffffffffffffffffffff16815260200190815260200160002060000160009054906101000a900473ffffffffffffffffffffffffffffffffffffffff1673ffffffffffffffffffffffffffffffffffffffff1614151561109f57600080fd5b6110a833611e6b565b60008060003373ffffffffffffffffffffffffffffffffffffffff1673ffffffffffffffffffffffffffffffffffffffff16815260200190815260200160002060000160006101000a81548173ffffffffffffffffffffffffffffffffffffffff021916908373ffffffffffffffffffffffffffffffffffffffff160217905550565b60035481565b600080339150600160008373ffffffffffffffffffffffffffffffffffffffff1673ffffffffffffffffffffffffffffffffffffffff16815260200190815260200160002060010160009054906101000a900473ffffffffffffffffffffffffffffffffffffffff169050600073ffffffffffffffffffffffffffffffffffffffff16600160008473ffffffffffffffffffffffffffffffffffffffff1673ffffffffffffffffffffffffffffffffffffffff16815260200190815260200160002060010160009054906101000a900473ffffffffffffffffffffffffffffffffffffffff1673ffffffffffffffffffffffffffffffffffffffff161415151561123a57600080fd5b60008060008373ffffffffffffffffffffffffffffffffffffffff1673ffffffffffffffffffffffffffffffffffffffff16815260200190815260200160002060080160009054906101000a900460ff1660ff161415151561129b57600080fd5b8173ffffffffffffffffffffffffffffffffffffffff166108fc600160008573ffffffffffffffffffffffffffffffffffffffff1673ffffffffffffffffffffffffffffffffffffffff168152602001908152602001600020600301549081150290604051600060405180830381858888f19350505050151561131d57600080fd5b8073ffffffffffffffffffffffffffffffffffffffff166108fc600160008573ffffffffffffffffffffffffffffffffffffffff1673ffffffffffffffffffffffffffffffffffffffff168152602001908152602001600020600201546000808573ffffffffffffffffffffffffffffffffffffffff1673ffffffffffffffffffffffffffffffffffffffff16815260200190815260200160002060050154019081150290604051600060405180830381858888f1935050505015156113e257600080fd5b60016000808373ffffffffffffffffffffffffffffffffffffffff1673ffffffffffffffffffffffffffffffffffffffff16815260200190815260200160002060070154018360ff166000808473ffffffffffffffffffffffffffffffffffffffff1673ffffffffffffffffffffffffffffffffffffffff168152602001908152602001600020600701546000808573ffffffffffffffffffffffffffffffffffffffff1673ffffffffffffffffffffffffffffffffffffffff16815260200190815260200160002060060160009054906101000a900460ff1660ff1602018115156114ca57fe5b046000808373ffffffffffffffffffffffffffffffffffffffff1673ffffffffffffffffffffffffffffffffffffffff16815260200190815260200160002060060160006101000a81548160ff021916908360ff1602179055506000808273ffffffffffffffffffffffffffffffffffffffff1673ffffffffffffffffffffffffffffffffffffffff1681526020019081526020016000206007016000815480929190600101919050555060018060008473ffffffffffffffffffffffffffffffffffffffff1673ffffffffffffffffffffffffffffffffffffffff16815260200190815260200160002060050154016000808373ffffffffffffffffffffffffffffffffffffffff1673ffffffffffffffffffffffffffffffffffffffff16815260200190815260200160002060080160009054906101000a900460ff1660ff16600160008573ffffffffffffffffffffffffffffffffffffffff1673ffffffffffffffffffffffffffffffffffffffff16815260200190815260200160002060050154600160008673ffffffffffffffffffffffffffffffffffffffff1673ffffffffffffffffffffffffffffffffffffffff16815260200190815260200160002060040160009054906101000a900460ff1660ff1602018115156116ad57fe5b04600160008473ffffffffffffffffffffffffffffffffffffffff1673ffffffffffffffffffffffffffffffffffffffff16815260200190815260200160002060040160006101000a81548160ff021916908360ff160217905550600160008373ffffffffffffffffffffffffffffffffffffffff1673ffffffffffffffffffffffffffffffffffffffff168152602001908152602001600020600501600081548092919060010191905055506000600160008473ffffffffffffffffffffffffffffffffffffffff1673ffffffffffffffffffffffffffffffffffffffff16815260200190815260200160002060000160006101000a81548173ffffffffffffffffffffffffffffffffffffffff021916908373ffffffffffffffffffffffffffffffffffffffff1602179055506000600160008473ffffffffffffffffffffffffffffffffffffffff1673ffffffffffffffffffffffffffffffffffffffff16815260200190815260200160002060010160006101000a81548173ffffffffffffffffffffffffffffffffffffffff021916908373ffffffffffffffffffffffffffffffffffffffff1602179055506000600160008473ffffffffffffffffffffffffffffffffffffffff1673ffffffffffffffffffffffffffffffffffffffff168152602001908152602001600020600201819055506000600160008473ffffffffffffffffffffffffffffffffffffffff1673ffffffffffffffffffffffffffffffffffffffff1681526020019081526020016000206003018190555060008060008373ffffffffffffffffffffffffffffffffffffffff1673ffffffffffffffffffffffffffffffffffffffff16815260200190815260200160002060000160006101000a81548173ffffffffffffffffffffffffffffffffffffffff021916908373ffffffffffffffffffffffffffffffffffffffff16021790555060008060008373ffffffffffffffffffffffffffffffffffffffff1673ffffffffffffffffffffffffffffffffffffffff16815260200190815260200160002060040160006101000a81548173ffffffffffffffffffffffffffffffffffffffff021916908373ffffffffffffffffffffffffffffffffffffffff16021790555060008060008373ffffffffffffffffffffffffffffffffffffffff1673ffffffffffffffffffffffffffffffffffffffff16815260200190815260200160002060080160006101000a81548160ff021916908360ff16021790555060008060008373ffffffffffffffffffffffffffffffffffffffff1673ffffffffffffffffffffffffffffffffffffffff16815260200190815260200160002060050181905550611a9b81611e6b565b505050565b60016020528060005260406000206000915090508060000160009054906101000a900473ffffffffffffffffffffffffffffffffffffffff16908060010160009054906101000a900473ffffffffffffffffffffffffffffffffffffffff16908060020154908060030154908060040160009054906101000a900460ff16908060050154905086565b60025481565b60046020528160005260406000206020528060005260406000206000915091509054906101000a900473ffffffffffffffffffffffffffffffffffffffff1681565b6000600460008373ffffffffffffffffffffffffffffffffffffffff1673ffffffffffffffffffffffffffffffffffffffff16815260200190815260200160002060008015151515815260200190815260200160002060006101000a81548173ffffffffffffffffffffffffffffffffffffffff021916908373ffffffffffffffffffffffffffffffffffffffff160217905550600460008073ffffffffffffffffffffffffffffffffffffffff1681526020019081526020016000206000600115151515815260200190815260200160002060009054906101000a900473ffffffffffffffffffffffffffffffffffffffff16600460008373ffffffffffffffffffffffffffffffffffffffff1673ffffffffffffffffffffffffffffffffffffffff1681526020019081526020016000206000600115151515815260200190815260200160002060006101000a81548173ffffffffffffffffffffffffffffffffffffffff021916908373ffffffffffffffffffffffffffffffffffffffff1602179055508060046000600460008073ffffffffffffffffffffffffffffffffffffffff1681526020019081526020016000206000600115151515815260200190815260200160002060009054906101000a900473ffffffffffffffffffffffffffffffffffffffff1673ffffffffffffffffffffffffffffffffffffffff1673ffffffffffffffffffffffffffffffffffffffff16815260200190815260200160002060008015151515815260200190815260200160002060006101000a81548173ffffffffffffffffffffffffffffffffffffffff021916908373ffffffffffffffffffffffffffffffffffffffff16021790555080600460008073ffffffffffffffffffffffffffffffffffffffff1681526020019081526020016000206000600115151515815260200190815260200160002060006101000a81548173ffffffffffffffffffffffffffffffffffffffff021916908373ffffffffffffffffffffffffffffffffffffffff16021790555050565b600460008273ffffffffffffffffffffffffffffffffffffffff1673ffffffffffffffffffffffffffffffffffffffff1681526020019081526020016000206000600115151515815260200190815260200160002060009054906101000a900473ffffffffffffffffffffffffffffffffffffffff1660046000600460008573ffffffffffffffffffffffffffffffffffffffff1673ffffffffffffffffffffffffffffffffffffffff16815260200190815260200160002060008015151515815260200190815260200160002060009054906101000a900473ffffffffffffffffffffffffffffffffffffffff1673ffffffffffffffffffffffffffffffffffffffff1673ffffffffffffffffffffffffffffffffffffffff1681526020019081526020016000206000600115151515815260200190815260200160002060006101000a81548173ffffffffffffffffffffffffffffffffffffffff021916908373ffffffffffffffffffffffffffffffffffffffff160217905550600460008273ffffffffffffffffffffffffffffffffffffffff1673ffffffffffffffffffffffffffffffffffffffff16815260200190815260200160002060008015151515815260200190815260200160002060009054906101000a900473ffffffffffffffffffffffffffffffffffffffff1660046000600460008573ffffffffffffffffffffffffffffffffffffffff1673ffffffffffffffffffffffffffffffffffffffff1681526020019081526020016000206000600115151515815260200190815260200160002060009054906101000a900473ffffffffffffffffffffffffffffffffffffffff1673ffffffffffffffffffffffffffffffffffffffff1673ffffffffffffffffffffffffffffffffffffffff16815260200190815260200160002060008015151515815260200190815260200160002060006101000a81548173ffffffffffffffffffffffffffffffffffffffff021916908373ffffffffffffffffffffffffffffffffffffffff160217905550600460008273ffffffffffffffffffffffffffffffffffffffff1673ffffffffffffffffffffffffffffffffffffffff16815260200190815260200160002060008015151515815260200190815260200160002060006101000a81549073ffffffffffffffffffffffffffffffffffffffff0219169055600460008273ffffffffffffffffffffffffffffffffffffffff1673ffffffffffffffffffffffffffffffffffffffff1681526020019081526020016000206000600115151515815260200190815260200160002060006101000a81549073ffffffffffffffffffffffffffffffffffffffff02191690556000808273ffffffffffffffffffffffffffffffffffffffff1673ffffffffffffffffffffffffffffffffffffffff168152602001908152602001600020600080820160006101000a81549073ffffffffffffffffffffffffffffffffffffffff02191690556001820160006122c991906123d5565b6002820160006122d991906123d5565b60038201600090556004820160006101000a81549073ffffffffffffffffffffffffffffffffffffffff021916905560058201600090556006820160006101000a81549060ff021916905560078201600090556008820160006101000a81549060ff021916905560098201600061235091906123d5565b505050565b828054600181600116156101000203166002900490600052602060002090601f016020900481019282601f1061239657805160ff19168380011785556123c4565b828001600101855582156123c4579182015b828111156123c35782518255916020019190600101906123a8565b5b5090506123d1919061241d565b5090565b50805460018160011615610100020316600290046000825580601f106123fb575061241a565b601f016020900490600052602060002090810190612419919061241d565b5b50565b61243f91905b8082111561243b576000816000905550600101612423565b5090565b905600a165627a7a723058200b26e34126c59cb4cc67bfdf4ae180375ec252048e4401f878bbb834fc5ce97d0029",
  "source": "pragma solidity ^0.4.14;\n\ncontract nexus {\n\tstruct Driver {\n\t\taddress addr;\n\t\tstring lat;\n\t\tstring lon;\n\t\tuint updated;\n\t\taddress rider;\n\t\tuint deposit;\n\t\tuint8 rating;\n\t\tuint ratingCount;\n\t\tuint8 riderRating;\n\t\tstring pubKey;\n\t}\n\n\tstruct Rider {\n\t\taddress addr;\n\t\taddress driver;\n\t\tuint fare;\n\t\tuint deposit;\n\t\tuint8 rating;\n\t\tuint ratingCount;\n\t}\n\n\tmapping(address => Driver) public drivers;\n\tmapping(address => Rider) public riders;\n\n\t// contract settings\n\tuint public driverDeposit;\n\tuint public riderDeposit;\n\n\tfunction nexus() public {\n\t\t// in future, these will change dynamically\n\t\tdriverDeposit = 100;\n\t\triderDeposit = 100;\n\t}\n\n\tfunction driverAdvertise(string lat, string lon, string pubKey) public payable {\n\t\t// check the driver has paid deposit\n\t\trequire(drivers[msg.sender].deposit >= driverDeposit || msg.value >= driverDeposit);\n\n\t\t// if new driver, add to index\n\t\tif (drivers[msg.sender].addr != msg.sender) {\n\t\t\tdllAddDriver(msg.sender);\n\t\t}\n\n\t\t// update driver state\n\t\tdrivers[msg.sender].addr = msg.sender;\n\t\tdrivers[msg.sender].lat = lat;\n\t\tdrivers[msg.sender].lon = lon;\n\t\tdrivers[msg.sender].updated = block.timestamp;\n\t\tdrivers[msg.sender].deposit = drivers[msg.sender].deposit + msg.value;\n\t\tdrivers[msg.sender].pubKey = pubKey;\n\n\t\t// potentially fire an event here\n\t}\n\n\tfunction driverRevokeAdvert() public {\n\t\t// check driver is already advertised\n\t\trequire(drivers[msg.sender].addr == msg.sender);\n\n\t\t// remove driver from index and mapping\n\t\tdllRemoveDriver(msg.sender);\n\n\t\tdrivers[msg.sender].addr = address(0);\n\t}\n\n\tfunction riderCreateJourney(address driver) public payable {\n\t\t// check the deposit has been paid\n\t\trequire(msg.value >= riderDeposit);\n\n\t\t// check the passenger is not already on a journey\n\t\trequire(riders[msg.sender].driver == address(0));\n\n\t\t// check the driver is advertised\n\t\trequire(drivers[driver].addr == driver);\n\n\t\t// set the rider's deposit and fare\n\t\triders[msg.sender].deposit = riderDeposit;\n\t\triders[msg.sender].fare = msg.value - riderDeposit;\n\n\t\t// set the rider's current driver\n\t\triders[msg.sender].driver = driver;\n\n\t\t// set the rider's address\n\t\triders[msg.sender].addr = msg.sender;\n\t}\n\n\tfunction driverAcceptJourney(address rider) public {\n\t\t// check the driver is advertised\n\t\trequire(drivers[msg.sender].addr == msg.sender);\n\n\t\t// check the rider has agreed to ride with this driver\n\t\trequire(riders[rider].driver == msg.sender);\n\n\t\t// set the driver's rider\n\t\tdrivers[msg.sender].rider = rider;\n\t}\n\n\tfunction driverCompleteJourney(uint8 rating) public {\n\t\t// check driver is on a journey\n\t\trequire(drivers[msg.sender].rider != address(0));\n\n\t\t// set rating for rider\n\t\tdrivers[msg.sender].riderRating = rating;\n\t}\n\n\tfunction riderCompleteJourney(uint8 rating) public {\n\t\taddress riderAddr = msg.sender;\n\t\taddress driverAddr = riders[riderAddr].driver;\n\n\t\t// check the rider is on a journey\n\t\trequire(riders[riderAddr].driver != address(0));\n\n\t\t// check the driver has completed the journey\n\t\trequire(drivers[driverAddr].riderRating != 0);\n\n\t\t// send deposits back and pay fare\n\t\triderAddr.transfer(riders[riderAddr].deposit);\n\t\tdriverAddr.transfer(drivers[driverAddr].deposit + riders[riderAddr].fare);\n\n\t\t// update driver rating\n\t\tdrivers[driverAddr].rating = uint8((drivers[driverAddr].rating * drivers[driverAddr].ratingCount + rating) / (drivers[driverAddr].ratingCount + 1));\n\t\tdrivers[driverAddr].ratingCount++;\n\n\t\t// update rider rating\n\t\triders[riderAddr].rating = uint8((riders[riderAddr].rating * riders[riderAddr].ratingCount + drivers[driverAddr].riderRating) / (riders[riderAddr].ratingCount + 1));\n\t\triders[riderAddr].ratingCount++;\n\n\t\t// potentially fire a rating event here\n\n\t\t// reset rider and driver state\n\t\triders[riderAddr].addr = address(0);\n\t\triders[riderAddr].driver = 0;\n\t\triders[riderAddr].fare = 0;\n\t\triders[riderAddr].deposit = 0;\n\t\tdrivers[driverAddr].addr = address(0);\n\t\tdrivers[driverAddr].rider = 0;\n\t\tdrivers[driverAddr].riderRating = 0;\n\t\tdrivers[driverAddr].deposit = 0;\n\n\t\t// remove driver from index\n\t\tdllRemoveDriver(driverAddr);\n\t}\n\n\t/*\n\t* Double Linked List\n\t* Adapted from https://ethereum.stackexchange.com/a/15341\n\t*/\n\n\tmapping(address => mapping(bool => address)) public dllDriverIndex;\n\n\tbool constant PREV = false;\n\tbool constant NEXT = true;\n\n\tfunction dllAddDriver(address addr) internal {\n\t\t// link the new node\n\t\tdllDriverIndex[addr][PREV] = 0x0;\n\t\tdllDriverIndex[addr][NEXT] = dllDriverIndex[0x0][NEXT];\n\n\t\t// insert the new node\n\t\tdllDriverIndex[dllDriverIndex[0x0][NEXT]][PREV] = addr;\n\t\tdllDriverIndex[0x0][NEXT] = addr;\n\t}\n\n\tfunction dllRemoveDriver(address addr) internal {\n\t\t// stitch the neighbours together\n\t\tdllDriverIndex[dllDriverIndex[addr][PREV]][NEXT] = dllDriverIndex[addr][NEXT];\n\t\tdllDriverIndex[dllDriverIndex[addr][NEXT]][PREV] = dllDriverIndex[addr][PREV];\n\n\t\t// delete state storage\n\t\tdelete dllDriverIndex[addr][PREV];\n\t\tdelete dllDriverIndex[addr][NEXT];\n\t\tdelete drivers[addr];\n\t}\n}\n",
  "sourcePath": "F:\\IngeniousHackathon_NExus\\contracts\\nexus.sol",
  "compiler": {
    "name": "solc",
    "version": "0.4.19+commit.c4cbbb05.Emscripten.clang"
  },
  "schemaVersion": "2.0.0",
  "updatedAt": "2018-03-03T07:36:45.742Z"
}